{
  "contractName": "SleepCoin",
  "abi": [
    {
      "constant": true,
      "inputs": [
        {
          "name": "",
          "type": "address"
        }
      ],
      "name": "balanceOf",
      "outputs": [
        {
          "name": "",
          "type": "uint256"
        }
      ],
      "payable": false,
      "stateMutability": "view",
      "type": "function"
    },
    {
      "constant": true,
      "inputs": [],
      "name": "owner",
      "outputs": [
        {
          "name": "",
          "type": "address"
        }
      ],
      "payable": false,
      "stateMutability": "view",
      "type": "function"
    },
    {
      "constant": true,
      "inputs": [
        {
          "name": "_addr",
          "type": "address"
        }
      ],
      "name": "getBalanceOf",
      "outputs": [
        {
          "name": "",
          "type": "uint256"
        }
      ],
      "payable": false,
      "stateMutability": "view",
      "type": "function"
    },
    {
      "constant": false,
      "inputs": [
        {
          "name": "_to",
          "type": "address"
        },
        {
          "name": "_value",
          "type": "uint256"
        }
      ],
      "name": "transfer",
      "outputs": [],
      "payable": false,
      "stateMutability": "nonpayable",
      "type": "function"
    },
    {
      "inputs": [
        {
          "name": "initialSupply",
          "type": "uint256"
        }
      ],
      "payable": false,
      "stateMutability": "nonpayable",
      "type": "constructor"
    }
  ],
  "bytecode": "0x6060604052341561000f57600080fd5b6040516020806104df83398101604052808051906020019091905050336000806101000a81548173ffffffffffffffffffffffffffffffffffffffff021916908373ffffffffffffffffffffffffffffffffffffffff16021790555080600160003373ffffffffffffffffffffffffffffffffffffffff1673ffffffffffffffffffffffffffffffffffffffff1681526020019081526020016000208190555050610420806100bf6000396000f300606060405260043610610062576000357c0100000000000000000000000000000000000000000000000000000000900463ffffffff16806370a08231146100675780638da5cb5b146100b45780639b96eece14610109578063a9059cbb14610156575b600080fd5b341561007257600080fd5b61009e600480803573ffffffffffffffffffffffffffffffffffffffff16906020019091905050610198565b6040518082815260200191505060405180910390f35b34156100bf57600080fd5b6100c76101b0565b604051808273ffffffffffffffffffffffffffffffffffffffff1673ffffffffffffffffffffffffffffffffffffffff16815260200191505060405180910390f35b341561011457600080fd5b610140600480803573ffffffffffffffffffffffffffffffffffffffff169060200190919050506101d5565b6040518082815260200191505060405180910390f35b341561016157600080fd5b610196600480803573ffffffffffffffffffffffffffffffffffffffff16906020019091908035906020019091905050610279565b005b60016020528060005260406000206000915090505481565b6000809054906101000a900473ffffffffffffffffffffffffffffffffffffffff1681565b60008060009054906101000a900473ffffffffffffffffffffffffffffffffffffffff1673ffffffffffffffffffffffffffffffffffffffff163373ffffffffffffffffffffffffffffffffffffffff1614151561023257600080fd5b600160008373ffffffffffffffffffffffffffffffffffffffff1673ffffffffffffffffffffffffffffffffffffffff168152602001908152602001600020549050919050565b80600160003373ffffffffffffffffffffffffffffffffffffffff1673ffffffffffffffffffffffffffffffffffffffff16815260200190815260200160002054101515156102c757600080fd5b600160008373ffffffffffffffffffffffffffffffffffffffff1673ffffffffffffffffffffffffffffffffffffffff1681526020019081526020016000205481600160008573ffffffffffffffffffffffffffffffffffffffff1673ffffffffffffffffffffffffffffffffffffffff16815260200190815260200160002054011015151561035657600080fd5b80600160003373ffffffffffffffffffffffffffffffffffffffff1673ffffffffffffffffffffffffffffffffffffffff1681526020019081526020016000206000828254039250508190555080600160008473ffffffffffffffffffffffffffffffffffffffff1673ffffffffffffffffffffffffffffffffffffffff1681526020019081526020016000206000828254019250508190555050505600a165627a7a72305820829fc34f5af5a870635f1d26778d3c346e557259f9e4bc5e650d497a6732e9640029",
  "source": "pragma solidity ^0.4.16;\n\ncontract SleepCoin {\n    /* This creates an array with all balances */\n    address public owner;\n    mapping (address => uint256) public balanceOf;\n\n    /* Initializes contract with initial supply tokens to the creator of the contract */\n    function SleepCoin(uint256 initialSupply) public {\n        owner = msg.sender;\n        balanceOf[msg.sender] = initialSupply;              // Give the creator all initial tokens\n    }\n\n    function getBalanceOf(address _addr) public view returns (uint256) {\n        require(msg.sender == owner);\n        return balanceOf[_addr];\n    }\n\n    /* Send coins */\n    function transfer(address _to, uint256 _value) public {\n        require(balanceOf[msg.sender] >= _value);           // Check if the sender has enough\n        require(balanceOf[_to] + _value >= balanceOf[_to]); // Check for overflows\n        balanceOf[msg.sender] -= _value;                    // Subtract from the sender\n        balanceOf[_to] += _value;                           // Add the same to the recipient\n    }\n}\n",
  "sourcePath": "/home/artem/github/sleep-coin/contracts/SleepCoin.sol",
  "compiler": {
    "name": "solc",
    "version": "0.4.18+commit.9cf6e910.Emscripten.clang"
  },
  "schemaVersion": "1.0.1",
  "updatedAt": "2018-01-16T08:45:04.373Z"
}